S01700004D6F746F72436F6E74726F6C6C65722E73726563D8
S11300000C9434000C9408030C9423030C943E03C6
S11300100C944A030C9456030C9462030C946E03E0
S11300200C947A030C9486030C9492030C949E0310
S11300300C94AA030C94B6030C94C2030C94CE0340
S11300400C94DA030C94E6030C94F2030C94FE0370
S11300500C940A040C9416040C9422040C942E049C
S11300600C943A040C94460411241FBECFEFD8E03C
S1130070DEBFCDBF11E0A0E0B1E0EAE6F9E002C0E6
S113008005900D92A631B107D9F721E0A6E1B1E0C0
S113009001C01D92A937B207E1F70E94D6020C9461
S11300A0B304CF93DF93EC0168831B821A8619860D
S11300B018861F821C8281E08A831E821D82E09141
S11300C01201F0911301228130E040E050E060E041
S11300D074E284EF90E00E9472042983DF91CF914F
S11300E00895FC01608384E1818381E08283A0918F
S11300F00A01B0910B0111968C91119712966C9193
S11301000E945204838308959EEF980F9C30C0F49C
S11301109AB1E82FF0E03297262F30E00E2E02C07D
S1130120220F331F0A94E2F7292B2AB99BB1242FFB
S113013030E002C0220F331FEA95E2F7292B2BB9D6
S113014092EF980F9630C0F494B1E82FF0E03E9708
S1130150262F30E00E2E02C0220F331F0A94E2F73E
S1130160292B24B995B1242F30E002C0220F331F6C
S1130170EA95E2F7292B25B999EE980F9630A8F461
S113018027B190E0479770E0082E02C0660F771FF2
S11301900A94E2F7622B67B998B150E002C0440FA9
S11301A0551F8A95E2F7492B48B90895CF93DF93F9
S11301B0EC0168831D821C821B821A8284E088877A
S11301C085E0898741E060E084E00E94840041E0AA
S11301D060E089850E948400DF91CF910895CF93D8
S11301E0DF93EC0168838BE0898382E08B838CE06E
S11301F08A8383E08C838DE08D8340E061E08BE033
S11302000E94840040E061E08B810E94840040E011
S113021061E08A810E94840040E061E08C810E9458
S1130220840040E061E08D810E948400DF91CF91E1
S11302300895FC0160838EE083838EE1828382E3F0
S1130240818340E061E08EE00E9484000895FC0117
S1130250608311828AE18383128240E061E00E941C
S1130260840008950F931F93CF93DF93EC01062F1F
S1130270142F41E061E08B810E94840009831A837A
S1130280DF91CF911F910F9108954F925F926F92DA
S11302907F92AF92BF92CF92DF92EF92FF920F9331
S11302A01F93CF93DF93EC01FB01278130856A858F
S11302B07B858F859889A901481B590BCA010E9427
S11302C05E048B01388B2F876A857B8581859285B7
S11302D029893A89821B930B0E945E049B018781C2
S11302E09085988B8F87E780F0846C857D858C89D9
S11302F09D89A701481B590BCA010E945E045B013A
S1130300FD8AEC8A6C857D85818592854E895F891D
S1130310841B950B0E945E047B01878190859D8BD5
S11303208C8B0F2EF8EECF2EF3E0DF2EF02D0C9DEC
S1130330C0010D9D900D1C9D900D1124280F391F97
S113034040E050E00F2EF0E44F2EF2E45F2EFFE089
S11303506F2E712CF02DC301B2010E949404890107
S11303601695079516950795AC9C9001AD9C300D9C
S1130370BC9C300D11242E0D3F1D40E050E0C30104
S1130380B2010E9494043695279536952795200F3F
S1130390311F3D832C83DF91CF911F910F91FF90EB
S11303A0EF90DF90CF90BF90AF907F906F905F9071
S11303B04F9008954DEF61E080910001909101010B
S11303C00E94320180E00895CF93DF93FC016083A3
S11303D0628380E88183138287E1860F848340E00F
S11303E060E00E94840010921A01CAE7D0E088817C
S11303F0806888838881886088830E94DA01988174
S1130400892B8883DF91CF910895893009F45BC0EB
S113041070F4823061F128F48823C9F08130F9F056
S1130420B5C08730E1F1883009F445C0AFC08C30E5
S113043031F138F48A3009F44EC08B3009F453C0DA
S1130440A5C08D3021F18F3F09F455C09FC060E0F5
S113045080911001909111010E94E401089561E0DE
S113046080910E0190910F010E94E401089562E0D1
S113047080910C0190910D010E94E40108956CE0BB
S113048080911201909113010E94510008956DE032
S113049080910A0190910B010E9471000895E091EE
S11304A00801F091090187E0808381E08183128251
S11304B013828483089568E0809106019091070176
S11304C00E94D600089569E080910401909105018D
S11304D00E94EF0008956AE0809102019091030167
S11304E00E94190108956BE080910001909101012F
S11304F00E942701089560E08091100190911101FC
S11305000E94E40161E080910E0190910F010E942C
S1130510E40162E080910C0190910D010E94E401DC
S11305206CE080911201909113010E9451006DE0E2
S113053080910A0190910B010E947100E0910801E1
S1130540F091090187E0808381E081831282138224
S1130550848368E080910601909107010E94D6008F
S113056069E080910401909105010E94EF006AE026
S113057080910201909103010E9419016BE0809126
S11305800001909101010E94270108956BE0809180
S11305900001909101010E9427014EEF60E08091DB
S11305A00001909101010E94320108958FEF0E9491
S11305B0050241E060E081E00E94840040E061E0E7
S11305C08FE00E94840040E060E080E10E948400AB
S11305D040E061E081E10E94840040E060E082E16B
S11305E00E94840040E061E083E10E94840040E0D6
S11305F060E086E00E94840078946091120170911A
S1130600130180910601909107010E944501F5CFE5
S11306101F920F920FB60F9211248F939F93EF9313
S1130620FF93E0910601F09107018285938501967D
S113063093878287FF91EF919F918F910F900FBEC7
S11306400F901F9018951F920F920FB60F921124BE
S11306508F939F93EF93FF93E0910601F09107012D
S113066084859585019695878487FF91EF919F9165
S11306708F910F900FBE0F901F9018951F920F929D
S11306800FB60F92112410922A010F900FBE0F90F3
S11306901F9018951F920F920FB60F92112410926B
S11306A029010F900FBE0F901F9018951F920F9263
S11306B00FB60F921124109228010F900FBE0F90C5
S11306C01F9018951F920F920FB60F92112410923B
S11306D027010F900FBE0F901F9018951F920F9235
S11306E00FB60F921124109226010F900FBE0F9097
S11306F01F9018951F920F920FB60F92112410920B
S113070025010F900FBE0F901F9018951F920F9206
S11307100FB60F921124109224010F900FBE0F9068
S11307201F9018951F920F920FB60F9211241092DA
S113073023010F900FBE0F901F9018951F920F92D8
S11307400FB60F921124109222010F900FBE0F903A
S11307501F9018951F920F920FB60F9211241092AA
S113076021010F900FBE0F901F9018951F920F92AA
S11307700FB60F921124109220010F900FBE0F900C
S11307801F9018951F920F920FB60F92112410927A
S11307901F010F900FBE0F901F9018951F920F927C
S11307A00FB60F92112410921E010F900FBE0F90DE
S11307B01F9018951F920F920FB60F92112410924A
S11307C01D010F900FBE0F901F9018951F920F924E
S11307D00FB60F92112410921C010F900FBE0F90B0
S11307E01F9018951F920F920FB60F92112410921A
S11307F01B010F900FBE0F901F9018951F920F9220
S11308000FB60F921124109215010F900FBE0F9086
S11308101F9018951F920F920FB60F9211241092E9
S113082014010F900FBE0F901F9018951F920F92F6
S11308300FB60F92112410921A010F900FBE0F9051
S11308401F9018951F920F920FB60F9211241092B9
S113085019010F900FBE0F901F9018951F920F92C1
S11308600FB60F921124109218010F900FBE0F9023
S11308701F9018951F920F920FB60F921124109289
S113088017010F900FBE0F901F9018951F920F9293
S11308900FB60F921124109216010F900FBE0F90F5
S11308A01F901895991B79E004C0991F961708F0BA
S11308B0961B881F7A95C9F780950895AA1BBB1BC0
S11308C051E107C0AA1FBB1FA617B70710F0A61B4C
S11308D0B70B881F991F5A95A9F780959095BC016D
S11308E0CD010895A1E21A2EAA1BBB1BFD010DC068
S11308F0AA1FBB1FEE1FFF1FA217B307E407F507CC
S113090020F0A21BB30BE40BF50B661F771F881FA7
S1130910991F1A9469F760957095809590959B013D
S1130920AC01BD01CF010895052E97FB1EF4009480
S11309300E94AB0457FD07D00E94720407FC03D049
S11309404EF40C94AB0450954095309521953F4F4F
S11309504F4F5F4F089590958095709561957F4FA7
S10D09608F4F9F4F0895F894FFCFC6
S113096A750146013B014A012B01710162016C01C7
S109097A670130010101D8
S9030000FC
