:100000000C9434000C9451000C9451000C94510049
:100010000C9451000C9451000C9451000C9451001C
:100020000C9451000C9451000C9451000C9451000C
:100030000C9451000C9451000C9451000C945100FC
:100040000C9451000C9451000C9451000C945100EC
:100050000C9451000C9453000C9451000C945100DA
:100060000C9451000C94510011241FBECFEFD8E026
:10007000DEBFCDBF11E0A0E0B1E0E4E0F1E002C0FE
:1000800005900D92A030B107D9F721E0A0E0B1E0D2
:1000900001C01D92A130B207E1F70E9462000C94EA
:1000A00080000C9400001F920F920FB60F92112443
:1000B0008F9381E0809300018F910F900FBE0F907E
:1000C0001F90189583E084B915B817B818B88FEF4A
:1000D0008AB91BB8289A2FEF84E39CE02150804016
:1000E0009040E1F700C0000085B115B82FEF84E320
:1000F0009CE0215080409040E1F700C00000EACF32
:04010000F894FFCFA1
:00000001FF
