:100000000C9434000C9451000C9451000C94510049
:100010000C9451000C9451000C9451000C9451001C
:100020000C9451000C9451000C9451000C9451000C
:100030000C9451000C9451000C9451000C945100FC
:100040000C9451000C9451000C9451000C945100EC
:100050000C9451000C9460000C9451000C945100CD
:100060000C9451000C94510011241FBECFEFD8E026
:10007000DEBFCDBF11E0A0E0B1E0E8E0F1E002C0FA
:1000800005900D92A030B107D9F721E0A0E0B1E0D2
:1000900001C01D92A130B207E1F70E946F000C94DD
:1000A00082000C940000309179002091780088E063
:1000B00090E002C0880F991F3A95E2F7822B0895CD
:1000C0001F920F920FB60F9211248F9381E08093AD
:1000D00000018F910F900FBE0F901F90189586E032
:1000E00084B915B817B818B880EF8AB98CE08BB905
:1000F0008FE880937A00809100018823E1F30E94C9
:080100005300F9CFF894FFCF82
:00000001FF
