S014000041726475696E6F526F626F742E7372656338
S11300000C9434000C943E000C943E000C943E007E
S11300100C943E000C943E000C943E000C943E0064
S11300200C943E000C943E000C943E000C943E0054
S11300300C943E000C943E000C943E000C943E0044
S11300400C943E000C943E000C943E000C943E0034
S11300500C943E000C943E000C943E000C943E0024
S11300600C943E000C943E0011241FBECFEFD8E048
S1130070DEBFCDBF0E9440000C944F000C940000E2
S11300808FEF8AB98BB180958BB92FEF83ED90E315
S1130090215080409040E1F700C00000F3CFF89475
S10500A0FFCF8C
S9030000FC
