:100000000C9434000C9451000C9451000C94510049
:100010000C9451000C9451000C9451000C9451001C
:100020000C9451000C9451000C9451000C9451000C
:100030000C9451000C9451000C9451000C945100FC
:100040000C9451000C9451000C9451000C945100EC
:100050000C9451000C9483000C9451000C945100AA
:100060000C9451000C94510011241FBECFEFD8E026
:10007000DEBFCDBF11E0A0E0B1E0E8E2F1E002C0F8
:1000800005900D92A030B107D9F721E0A0E0B1E0D2
:1000900001C01D92A130B207E1F70E9453000C94F9
:1000A00092000C94000083E084B915B817B818B812
:1000B0008FEF8AB91BB80E946D0078941A9903C01B
:1000C00085E00E947300809100018823B9F30E94AB
:1000D0007C008BB9946095B9F1CF109200018FE844
:1000E00080937A000895806480937C00EAE7F0E0D2
:1000F0008081806480830895809178009091790058
:100100001092000108951F920F920FB60F921124C2
:100110008F9381E0809300018F910F900FBE0F901D
:080120001F901895F894FFCF21
:00000001FF
