:100000000C9434000C9451000C9451000C94510049
:100010000C9451000C9451000C9451000C9451001C
:100020000C9451000C9451000C9451000C9451000C
:100030000C9451000C9451000C9451000C945100FC
:100040000C9451000C9451000C9451000C945100EC
:100050000C9451000C9498000C9451000C94510095
:100060000C9451000C94510011241FBECFEFD8E026
:10007000DEBFCDBF11E0A0E0B1E0E2E9F2E002C0F6
:1000800005900D92A230B107D9F721E0A2E0B1E0CE
:1000900001C01D92A530B207E1F70E9453000C94F5
:1000A00047010C94000083E084B984E085B917B857
:1000B00018B88FEF8AB91BB80E947A0082E10E94BB
:1000C000A70082E00E94E40078941A9905C085E0B8
:1000D0000E9480000E942701809102018823A9F3D9
:1000E0000E9491002BB182238BB985B19460892342
:1000F00085B9EBCF109202018FE880937A000895C2
:1001000090910201992321F081E00E94E40008957A
:10011000806480937C00EAE7F0E0808180648083E3
:1001200008958091780090917900109202010895CD
:100130001F920F920FB60F9211248F9381E080933C
:1001400002018F910F900FBE0F901F901895809312
:1001500000019EEF980F9C3078F421E02093040179
:10016000909300014AB121E030E002C0220F331F1A
:100170009A95E2F7242B2AB992EF980F963078F4EB
:1001800022E0209304019093000144B121E030E08B
:1001900002C0220F331F9A95E2F7242B24B987510E
:1001A000863088F493E0909304018093000147B176
:1001B00021E030E0B90102C0660F771F8A95E2F7AF
:1001C000CB01842B87B908958093030180910401AA
:1001D000813071F028F08230C1F0833019F12FC0E6
:1001E000809100010E94A70080E00E94E400089531
:1001F0002BB181E090E00090000102C0880F991FB0
:100200000A94E2F7822B8BB9089525B181E090E042
:100210000090000102C0880F991F0A94E2F7822B18
:1002200085B9089528B181E090E00090000102C0F6
:10023000880F991F0A94E2F7822B88B9089580915C
:1002400000010E94A70080E00E94E40008958091D0
:100250000401813071F028F08230C1F0833061F008
:100260000EC0809100010E94A70080E00E94E4007F
:1002700008958BB11BB8089588B118B8089580917E
:1002800000010E94A70080E00E94E4000895F89415
:02029000FFCF9E
:02029200120058
:00000001FF
