S01600004D61696E436F6E74726F6C6C65722E7372656365
S11300000C9434000C945F020C9486020C94AE029F
S11300100C94BA020C94C6020C94D2020C94DE0224
S11300200C9432030C943E030C944A030C94830303
S11300300C948F030C949B030C94AA030C94B603A6
S11300400C94C2030C94CE030C94DA030C94EE03C8
S11300500C94FD030C9411040C9420040C942C04B3
S11300600C9438040C946C0411241FBECFEFD8E018
S1130070DEBFCDBF11E0A0E0B1E0E4E9F9E002C0E9
S113008005900D92A430B107D9F721E0A4E0B1E0C6
S113009001C01D92A036B207E1F70E946F010C94D3
S11300A0C8049EEF980F9C30A8F45AB1262F30E074
S11300B0092E02C0220F331F0A94E2F7252B2AB916
S11300C05BB1242F30E002C0220F331F9A95E2F770
S11300D0252B2BB992EF980F9630A8F454B1262F04
S11300E030E0092E02C0220F331F0A94E2F7252BB9
S11300F024B955B1242F30E002C0220F331F9A9542
S1130100E2F7252B25B98751863098F497B170E032
S1130110082E02C0660F771F0A94E2F7692B67B9AD
S113012098B150E002C0440F551F8A95E2F7492B5D
S113013048B908958093000140E061E00E945100B5
S1130140089580930B0141E061E0809100010E94D9
S113015051000895CF9390930F0180930E0122E0F4
S11301602093B0008034910511F148F48830910552
S1130170B1F080329105B9F0019749F50CC08115B1
S113018021E09207E1F0811524E09207E1F0803844
S11301909105E9F410C081E08093B1001BC082E0B6
S11301A08093B10017C083E08093B10013C084E052
S11301B08093B1000FC085E08093B1000BC086E04E
S11301C08093B10007C087E08093B10003C087E04B
S11301D08093B100C2E0C093B10020910E01309130
S11301E00F01220F331FA0E5B3EC0E94B9049B0159
S11301F0AC0160E074E284EF90E00E947804225045
S11302002093B300C09370001092B200CF91089570
S113021040E060E082E00E94510040E061E083E061
S11302200E94510087E690E09093C5008093C4003B
S113023088ED8093C1008EE08093C2000895809180
S113024037018823A9F090913801E92FF0E0E05BB1
S1130250FE4F8081973020F49F5F9093380102C055
S1130260109238019091370191509093370108957D
S113027080E00895809101018823A1F0109201018A
S1130280E0913601F0E0E85AFE4F80818093C60089
S113029080913601873020F48F5F80933601089572
S11302A0109236010895809137018830A0F480912E
S11302B039019091C600E82FF0E0E05BFE4F908397
S11302C0873020F48F5F8093390102C01092390186
S11302D010924101089589E20E94A100089586E0E8
S11302E084B98FEF87B98AB981E085B918B81BB88A
S11302F0809100010E949A000E94AA0080E895E281
S11303000E94080178940F2EF0E4CF2EF2E4DF2E41
S1130310FFE0EF2EF12CF02D08E710E0CFEF8091F5
S11303204901882309F48DC080912A01882321F092
S1130330813009F443C083C020911201309113012C
S113034080911601909117018217930778F4809198
S11303501601909117012091120130911301821B13
S1130360930B90932901809328010EC0809116016C
S1130370909117012091120130911301821B930B6C
S113038090932901809328014091280150912901DB
S113039080910C0190910D01489F9001499F300D6F
S11303A0589F300D112440E050E0C701B6010E946F
S11303B09A04309325012093240141C02091100117
S11303C030911101809114019091150182179307C6
S11303D078F48091140190911501209110013091CD
S11303E01101821B930B90932701809326010EC069
S11303F08091140190911501209110013091110107
S1130400821B930B90932701809326014091260130
S11304105091270180910C0190910D01489F90010A
S1130420499F300D589F300D112440E050E0C70122
S1130430B6010E949A043093230120932201109262
S1130440490180914001882359F1F801808191810B
S113045090933B0180933A0180910401813069F0CB
S113046018F0823099F01AC080913A0190913B01C2
S113047090930A018093090111C080913A019091EF
S11304803B01909308018093070108C080913A01D1
S113049090913B01909306018093050110924001D5
S11304A08091410181110E94530180913501811194
S11304B00E943A010E941F01C7B988B930CF1F9228
S11304C00F920FB60F9211248F939F93AF93BF9304
S11304D080912F0190913001A0913101B0913201AE
S11304E00196A11DB11D80932F0190933001A0931B
S11304F03101B093320110922A01BF91AF919F91C3
S11305008F910F900FBE0F901F9018951F920F920E
S11305100FB60F9211248F939F93AF93BF93809143
S11305202B0190912C01A0912D01B0912E010196E7
S1130530A11DB11D80932B0190932C01A0932D013B
S1130540B0932E0181E080932A01BF91AF919F91D6
S11305508F910F900FBE0F901F9018951F920F92BE
S11305600FB60F92112410924F010F900FBE0F90EF
S11305701F9018951F920F920FB60F92112410928C
S11305804E010F900FBE0F901F9018951F920F925F
S11305900FB60F92112410924D010F900FBE0F90C1
S11305A01F9018951F920F920FB60F92112410925C
S11305B04C010F900FBE0F901F9018951F920F9231
S11305C00FB60F9211242F938F939F93AF93BF93E2
S11305D080911A0190911B01A0911C01B0911D0101
S11305E00A96A11DB11D80931A0190931B01A0933B
S11305F01C01B0931D0180911801909119010A9674
S11306009093190180931801809118019091190118
S1130610883E9340E8F080911E0190911F01A091C3
S11306202001B09121010196A11DB11D80931E01ED
S113063090931F01A0932001B09321018091180190
S113064090911901885E9340909319018093180149
S1130650BF91AF919F918F912F910F900FBE0F90EB
S11306601F9018951F920F920FB60F92112410929B
S11306704B010F900FBE0F901F9018951F920F9271
S11306800FB60F92112410924A010F900FBE0F90D3
S11306901F9018951F920F920FB60F9211248F93EB
S11306A09F9381E08093490180912A01882319F066
S11306B0813091F021C0809116019091170190939F
S11306C0130180931201809186009091870090938A
S11306D017018093160110C08091140190911501A7
S11306E0909311018093100180918600909187006E
S11306F090931501809314019F918F910F900FBED9
S11307000F901F9018951F920F920FB60F921124FD
S1130710109248010F900FBE0F901F9018951F92D2
S11307200F920FB60F921124109247010F900FBE33
S11307300F901F9018951F920F920FB60F921124CD
S11307408F9381E0809346018F910F900FBE0F909D
S11307501F9018951F920F920FB60F9211241092AA
S113076045010F900FBE0F901F9018951F920F9286
S11307700FB60F921124109244010F900FBE0F90E8
S11307801F9018951F920F920FB60F92112410927A
S113079043010F900FBE0F901F9018951F920F9258
S11307A00FB60F921124109242010F900FBE0F90BA
S11307B01F9018951F920F920FB60F9211248F93CA
S11307C081E080934101809137018F5F80933701ED
S11307D08F910F900FBE0F901F9018951F920F923C
S11307E00FB60F9211248F9381E0809302018F91B1
S11307F00F900FBE0F901F9018951F920F920FB677
S11308000F9211248F9381E080930101809135012F
S11308108150809335018F910F900FBE0F901F90E0
S113082018951F920F920FB60F9211248F9381E0A7
S1130830809340018F910F900FBE0F901F901895D9
S11308401F920F920FB60F92112410923F010F9036
S11308500FBE0F901F9018951F920F920FB60F9214
S1130860112410923E010F900FBE0F901F90189507
S11308701F920F920FB60F9211248F93EF93FF9351
S113088010923D018091B9008C7F823171F08C31DE
S1130890B1F08830C9F4809133018093BB00ECEB54
S11308A0F0E08081806880830FC080913401809360
S11308B0BB00ECEBF0E080818068808305C0ECEB4A
S11308C0F0E0808180698083FF91EF918F910F9098
S11308D00FBE0F901F9018951F920F920FB60F9294
S11308E0112410923C010F900FBE0F901F90189589
S11308F0A1E21A2EAA1BBB1BFD010DC0AA1FBB1F20
S1130900EE1FFF1FA217B307E407F50720F0A21B91
S1130910B30BE40BF50B661F771F881F991F1A94FE
S113092069F760957095809590959B01AC01BD0128
S1130930CF010895052E97FB1EF400940E94B10484
S113094057FD07D00E94780407FC03D04EF40C94A2
S1130950B10450954095309521953F4F4F4F5F4FCF
S1130960089590958095709561957F4F8F4F9F4F17
S11309700895A29FB001B39FC001A39F700D811D74
S11309801124911DB29F700D811D1124911D089594
S1070990F894FFCF05
S10709941201010047
S9030000FC
