:100000000C9453000C9481030C94A8030C94D0031B
:100010000C94DC030C94E8030C94F4030C9400049B
:100020000C9454040C9460040C946C040C94A5047B
:100030000C94B1040C94BD040C94CC040C94D8041E
:100040000C94E4040C94F0040C94FC040C944F0500
:100050000C945B050C9467050C9480050C948C053E
:100060000C9498050C94F005BA05DC05DF05DC0559
:10007000DC05DC05DC05DC05DC05DC05C405DC0590
:10008000CE05DC05DC05DC05DC05DC05DC05DC0576
:10009000D205DC05D805DC05DC05DC05DC05DC0566
:1000A000DC05DC05DF0511241FBECFEFD8E0DEBF85
:1000B000CDBF11E0A0E0B1E0E2E1FDE002C00590BB
:1000C0000D92A230B107D9F721E0A2E0B1E001C062
:1000D0001D92A935B207E1F70E9477020C948706BA
:1000E0009EEF980F9C30A8F45AB1262F30E0092ECD
:1000F00002C0220F331F0A94E2F7252B2AB95BB105
:10010000242F30E002C0220F331F9A95E2F7252BEF
:100110002BB992EF980F9630A8F454B1262F30E007
:10012000092E02C0220F331F0A94E2F7252B24B9AF
:1001300055B1242F30E002C0220F331F9A95E2F709
:10014000252B25B98751863098F497B170E0082E99
:1001500002C0660F771F0A94E2F7692B67B998B15E
:1001600050E002C0440F551F8A95E2F7492B48B969
:10017000089510923F018FE880937A00089580934C
:10018000000140E061E00E94700008958093090141
:1001900041E061E0809100010E9470000895CF93DA
:1001A000C82F8830D0F440E060E087E18C0F0E94D7
:1001B000700080913F01882321F08BE00E94C600EF
:1001C0000FC08C2F806480937C00EAE7F0E0808190
:1001D00080648083C093020103C08AE00E94C6004D
:1001E000CF9108957093110160931001882319F045
:1001F000813089F172C084B5836084BD603471053B
:10020000C1F038F46130710561F06830710569F052
:100210001CC0611581E0780781F06115744089F098
:1002200014C085B5816085BD13C085B5826085BD6C
:100230000FC085B5836085BD0BC085B5846085BD65
:1002400007C085B5856085BD03C085B5856085BD62
:1002500017BC18BC0895E0E8F0E0808183608083DB
:1002600060347105E1F038F46130710561F0683097
:10027000710579F025C0611581E07807B1F061154D
:100280007440C9F01DC0E1E8F0E0808181608083A6
:100290001CC0E1E8F0E080818260808316C0E1E864
:1002A000F0E080818360808310C0E1E8F0E080812D
:1002B000846080830AC0E1E8F0E08081856080830B
:1002C000E1E8F0E0808185608083109289001092DF
:1002D000880010928B0010928A0084E10E94C60070
:1002E0000895CF9390930F0180930E0122E0209305
:1002F000B0008034910511F148F488309105B1F0D7
:1003000080329105B9F0019749F50CC0811521E0C3
:100310009207E1F0811524E09207E1F08038910521
:10032000E9F410C081E08093B1001BC082E08093AB
:10033000B10017C083E08093B10013C084E08093C4
:10034000B1000FC085E08093B1000BC086E08093C0
:10035000B10007C087E08093B10003C087E08093BD
:10036000B100C2E0C093B10020910E0130910F01A5
:10037000220F331FA0E5B3EC0E9443069B01AC01A2
:1003800060E074E284EF90E00E94FC05225020932C
:10039000B300C09370001092B200CF9108951F93E4
:1003A000CF93DF93EC01162F90930D0180930C01F6
:1003B0009C0140E050E060E074E284EF90E00E9435
:1003C000FC0560E472E48FE090E00E94FC0530934D
:1003D0000B0120930A0180E4189FB001112460688A
:1003E00060938100C034D105D9F030F4C130D1051B
:1003F00059F0289779F026C0C11581E0D807B1F0EF
:10040000C115D440C9F01EC0E1E8F0E080818160F0
:1004100080831DC0E1E8F0E080818260808317C0A6
:10042000E1E8F0E080818360808311C0E1E8F0E0E2
:100430008081856080830BC0E1E8F0E0808181608D
:10044000808305C0E1E8F0E080818160808380E204
:1004500080936F00DF91CF911F91089587E690E020
:100460009093C5008093C40088ED8093C10086E01E
:100470008093C2000895CF93DF93CDB7DEB72A975C
:100480000FB6F894DEBF0FBECDBFDC01CB012091CB
:100490004001222321F088E20E94C6001FC04AE0EA
:1004A000BE016F5F7F4F0E945206DE011196BE01B2
:1004B000655F7F4FCD0131E046EC50E0FC010190DB
:1004C0000020E9F73197E81BF90BE8B930934001B8
:1004D0002D91FA012083A617B70781F72A960FB648
:1004E000F894DEBF0FBECDBFDF91CF91089586E0B7
:1004F00084B98FEF87B98AB981E085B918B81BB87C
:10050000809100010E94BF000E9471010E94B90009
:1005100060E074E080E00E94F20060E080E094E03F
:100520000E94CF0180E895E20E942E0278940F2E5F
:10053000F0E4CF2EF2E4DF2EFFE0EF2EF12CF02DD1
:10054000C1E080914A01882309F48DC080912C017B
:10055000882321F0813009F443C083C02091140125
:10056000309115018091180190911901821793071C
:1005700078F4809118019091190120911401309123
:100580001501821B930B90932B0180932A010EC0BF
:100590008091180190911901209114013091150159
:1005A000821B930B90932B0180932A0140912A0187
:1005B00050912B0180910A0190910B01489F90016D
:1005C000499F300D589F300D112440E050E0C70185
:1005D000B6010E941E06309327012093260141C0D8
:1005E0002091120130911301809116019091170111
:1005F0008217930778F4809116019091170120914A
:10060000120130911301821B930B90932901809367
:1006100028010EC0809116019091170120911201BE
:1006200030911301821B930B909329018093280131
:10063000409128015091290180910A0190910B016C
:10064000489F9001499F300D589F300D112440E084
:1006500050E0C701B6010E941E0630932501209389
:10066000240110924A0180913F01882341F1809139
:100670000201813069F018F0823099F01BC080913E
:10068000390190913A01909308018093070115C0B8
:100690008091390190913A01909306018093050170
:1006A0000CC08091390190913A019093040180939C
:1006B000030103C08AE00E94C60010923F018091AE
:1006C00037018823B9F080913801883030F4809167
:1006D00038018F5F8093380102C0C093380162ED0A
:1006E00074E080E090E00E943B02809137018150ED
:1006F0008093370180913F01811123CF0E94CF0069
:1007000020CF1F920F920FB60F9211248F939F93B9
:10071000AF93BF938091310190913201A091330149
:10072000B09134010196A11DB11D809331019093C8
:100730003201A0933301B093340110922C01BF9188
:10074000AF919F918F910F900FBE0F901F901895B2
:100750001F920F920FB60F9211248F939F93AF9316
:10076000BF9380912D0190912E01A0912F01B09106
:1007700030010196A11DB11D80932D0190932E0192
:10078000A0932F01B093300181E080932C01BF91A1
:10079000AF919F918F910F900FBE0F901F90189562
:1007A0001F920F920FB60F921124109250010F90CA
:1007B0000FBE0F901F9018951F920F920FB60F92B9
:1007C000112410924F010F900FBE0F901F9018959B
:1007D0001F920F920FB60F92112410924E010F909C
:1007E0000FBE0F901F9018951F920F920FB60F9289
:1007F000112410924D010F900FBE0F901F9018956D
:100800001F920F920FB60F9211242F938F939F93E5
:10081000AF93BF9380911C0190911D01A0911E0187
:10082000B0911F010A96A11DB11D80931C019093E8
:100830001D01A0931E01B0931F0180911A01909198
:100840001B010A9690931B0180931A0180911A0153
:1008500090911B01883E9340E8F080912001909197
:100860002101A0912201B09123010196A11DB11D8A
:100870008093200190932101A0932201B093230142
:1008800080911A0190911B01885E934090931B0107
:1008900080931A01BF91AF919F918F912F910F90EB
:1008A0000FBE0F901F9018951F920F920FB60F92C8
:1008B000112410924C010F900FBE0F901F901895AD
:1008C0001F920F920FB60F92112410924B010F90AE
:1008D0000FBE0F901F9018951F920F920FB60F9298
:1008E00011248F939F9381E080934A0180912C0182
:1008F000882319F0813091F021C0809118019091E6
:1009000019019093150180931401809186009091B4
:100910008700909319018093180110C080911601EF
:10092000909117019093130180931201809186009A
:100930009091870090931701809316019F918F915A
:100940000F900FBE0F901F9018951F920F920FB629
:100950000F921124109249010F900FBE0F901F901B
:1009600018951F920F920FB60F9211241092480102
:100970000F900FBE0F901F9018951F920F920FB6F9
:100980000F9211248F9381E0809347018F910F90F4
:100990000FBE0F901F9018951F920F920FB60F92D7
:1009A0001124109246010F900FBE0F901F901895C2
:1009B0001F920F920FB60F921124109245010F90C3
:1009C0000FBE0F901F9018951F920F920FB60F92A7
:1009D0001124109244010F900FBE0F901F90189594
:1009E0001F920F920FB60F921124109243010F9095
:1009F0000FBE0F901F9018951F920F920FB60F9277
:100A000011242F933F934F935F936F937F938F9313
:100A10009F93AF93BF93EF93FF9310924201809106
:100A20003701883020F089E20E94C60027C020915B
:100A300038018091370190E0820F911D08976CF486
:100A400080913801E0913701F0E0E80FF11D8091CD
:100A5000C600EF5AFE4F80830CC080913801E091B0
:100A60003701F0E0E80FF11D8091C600E75BFE4F13
:100A70008083809137018F5F80933701FF91EF91E1
:100A8000BF91AF919F918F917F916F915F914F91A6
:100A90003F912F910F900FBE0F901F9018951F92AE
:100AA0000F920FB60F921124109241010F900FBEBA
:100AB0000F901F9018951F920F920FB60F9211244E
:100AC000109240010F900FBE0F901F9018951F922B
:100AD0000F920FB60F9211248F939F9380917800FD
:100AE0009091790090933A018093390181E080934D
:100AF0003F019F918F910F900FBE0F901F901895FF
:100B00001F920F920FB60F92112410923E010F9078
:100B10000FBE0F901F9018951F920F920FB60F9255
:100B2000112410923D010F900FBE0F901F90189549
:100B30001F920F920FB60F9211242F933F934F9352
:100B40005F936F937F938F939F93AF93BF93EF9335
:100B5000FF9310923C018091B900E82FEC7F8E2F1B
:100B600090E0FC013897EF31F10530F5EC5CFF4F78
:100B70000C943D06809135018093BB00ECEBF0E0D6
:100B80008081806880831BC0809136018093BB0088
:100B9000ECEBF0E080818068808311C08FE10E94DF
:100BA000C6000DC0ECEBF0E080818069808307C057
:100BB00080E20E94C60003C081E20E94C600FF914D
:100BC000EF91BF91AF919F918F917F916F915F91C5
:100BD0004F913F912F910F900FBE0F901F9018953E
:100BE0001F920F920FB60F92112410923B010F909B
:100BF0000FBE0F901F901895A1E21A2EAA1BBB1BC7
:100C0000FD010DC0AA1FBB1FEE1FFF1FA217B307D8
:100C1000E407F50720F0A21BB30BE40BF50B661FEE
:100C2000771F881F991F1A9469F7609570958095B2
:100C300090959B01AC01BD01CF010895052E97FB56
:100C40001EF400940E94350657FD07D00E94FC0553
:100C500007FC03D04EF40C94350650954095309522
:100C600021953F4F4F4F5F4F089590958095709518
:100C700061957F4F8F4F9F4F0895EE0FFF1F059097
:100C8000F491E02D0994A29FB001B39FC001A39FEE
:100C9000700D811D1124911DB29F700D811D1124B5
:100CA000911D0895BB274A3031F4992322F4BDE207
:100CB000909581959F4F0C945E06BB27FB015527AD
:100CC000AA27880F991FAA1FA41710F0A41B8395A9
:100CD0005051B9F7A05DAA3308F0A95DA193009720
:100CE00079F7B111B1931192CB010C947706DC0125
:100CF000FC01672F71917723E1F7329704C07C9153
:100D00006D9370836291AE17BF07C8F30895F8948E
:020D1000FFCF13
:020D12001200CD
:00000001FF
