S00D0000526F626F742E7372656311
S11300000C9434000C9451000C9451000C94510045
S11300100C9451000C9451000C9451000C94510018
S11300200C9451000C9451000C9491010C945100C7
S11300300C9451000C94AC010C9451000C9451009C
S11300400C9443010C9451000C9451000C945100F5
S11300500C9451000C949F000C9451000C9451008A
S11300600C9451000C94510011241FBECFEFD8E022
S1130070DEBFCDBF11E0A0E0B1E0E6E8F3E002C0EE
S113008005900D92A230B107D9F721E0A2E0B1E0CA
S113009001C01D92A231B207E1F70E9453000C94F3
S11300A0C1010C94000083E084B984E085B981E047
S11300B087B918B88FEF8AB91BB80E94810087E10D
S11300C00E94AE000E942E0178941A9905C061E046
S11300D08BE00E9437010DC085E00E9487000E94DA
S11300E098009695879596958795682F8BE00E9442
S11300F037018091020181110E94980080910301CF
S1130100E4CF109202018FE880937A0008959091D1
S11301100201992321F081E00E94EB00089580649C
S113012080937C00EAE7F0E0808180648083089516
S113013080917800909179001092020108951F92A5
S11301400F920FB60F9211248F9381E080930201D6
S11301508F910F900FBE0F901F9018958093000100
S11301609EEF980F9C3078F421E020930501909342
S113017000014AB121E030E002C0220F331F9A95FA
S1130180E2F7242B2AB992EF980F963078F422E004
S1130190209305019093000144B121E030E002C0B6
S11301A0220F331F9A95E2F7242B24B98751863006
S11301B088F493E0909305018093000147B121E016
S11301C030E0B90102C0660F771F8A95E2F7CB01D0
S11301D0842B87B9089580930401809105018130AF
S11301E071F028F08230C1F0833019F12FC0809172
S11301F000010E94AE0080E00E94EB0008952BB144
S113020081E090E00090000102C0880F991F0A94D9
S1130210E2F7822B8BB9089525B181E090E000903C
S1130220000102C0880F991F0A94E2F7822B85B956
S1130230089528B181E090E00090000102C0880F89
S1130240991F0A94E2F7822B88B9089580910001DE
S11302500E94AE0080E00E94EB00089584B5836A9A
S113026084BD85B5846085BD17BC18BC08958B30EA
S113027021F08C3021F467BD089568BD089583E0B2
S11302800E94EB0008951F920F920FB60F92112453
S11302902F938F939F93AF93BF9380910E0190916F
S11302A00F01A0911001B09111010196A11DB11D82
S11302B080930E0190930F01A0931001B09311014C
S11302C08091060190910701019690930701809314
S11302D006018091060190910701883E9340B9F48C
S11302E0109207011092060180910A0190910B016E
S11302F0A0910C01B0910D010196A11DB11D809337
S11303000A0190930B01A0930C01B0930D01BF91CE
S1130310AF919F918F912F910F900FBE0F901F90CF
S113032018951F920F920FB60F9211248F939F93DB
S11303308091860090918700909309018093080131
S113034081E08093030110926F009F918F910F9031
S11303500FBE0F901F9018951F920F920FB60F9219
S113036011248F93109209011092080181E0809367
S1130370030110926F008F910F900FBE0F901F908A
S10903801895F894FFCF6C
S105038612005F
S9030000FC
