:100000000C9434000C94D9010C94E5010C94F1018A
:100010000C94FD010C9409020C9415020C9421021D
:100020000C942D020C9439020C9445020C9460023D
:100030000C946C020C9478020C948D020C9499022E
:100040000C94A5020C94F5020C9401030C940D037E
:100050000C9419030C9425030C943E030C944A034E
:100060000C9456030C94620311241FBECFEFD8E00A
:10007000DEBFCDBF11E0A0E0B1E0E0EEF6E002C0EF
:1000800005900D92A030B107D9F721E0A0E0B1E0D2
:1000900001C01D92A233B207E1F70E9432010C9415
:1000A0006E0310921D018FE880937A00089584B545
:1000B000836084BD85B5846085BD17BC18BC089578
:1000C000809302019EEF980F9C3078F493E0909318
:1000D00001014AB121E030E0B90102C0660F771F8B
:1000E0008A95E2F7CB01842B8AB92091020182EF35
:1000F000820F863068F481E08093010134B181E0A1
:1001000090E002C0880F991F2A95E2F7832B84B9EB
:100110002091020189EE820F863068F482E080939C
:10012000010137B181E090E002C0880F991F2A9544
:10013000E2F7832B87B90895809300018091010134
:10014000813071F028F08230C1F0833019F12FC076
:10015000809102010E94600080E00E949C0008954E
:1001600028B181E090E00090020102C0880F991F41
:100170000A94E2F7822B88B9089525B181E090E0D6
:100180000090020102C0880F991F0A94E2F7822BA7
:1001900085B908952BB181E090E00090020102C082
:1001A000880F991F0A94E2F7822B8BB908958091EA
:1001B00002010E94600080E00E949C0008958B3044
:1001C00019F08C3089F020C0611106C084B58F7D94
:1001D00084BD18BC5D98089588B56817C1F068BDE6
:1001E00084B5806284BD0895611106C084B58F779F
:1001F00084BD17BC5E98089587B5681741F067BD48
:1002000084B5806884BD089583E00E949C000895B1
:1002100082E084BD81E085BD97E097BD80936E004C
:1002200016BC89E0809381001092850010928400B2
:100230000895CF93C62F882359F0813089F460E068
:100240008CE00E94DF006C2F8BE00E94DF0008C072
:1002500060E08BE00E94DF006C2F8CE00E94DF00EA
:10026000CF9108958FEF84B987B980E68AB985E088
:1002700085B918B81BB80E9457000E9451008CE045
:100280000E9460000E9408017894809131018823C7
:1002900099F08091130190911401A0911501B091F2
:1002A00016010196A11DB11D8093130190931401B5
:1002B000A0931501B093160180913001882399F025
:1002C00080910F0190911001A0911101B091120144
:1002D0000196A11DB11D80930F0190931001A09371
:1002E0001101B093120180912F0180912E01809114
:1002F0002D0180912C0180912B0180912A01809108
:100300002901809128018091270180912601809107
:100310002501809124018091230180912201809107
:1003200021018091200180911F0180911E01809107
:100330001D01811110921D0180911C0180911B01F2
:1003400080911A01809119016FEF81E00E941901DB
:100350002FEF83ED90E3215080409040E1F700C003
:10036000000060E081E00E9419012FEF83ED90E32F
:10037000215080409040E1F700C000006FEF80E026
:100380000E9419012FEF83ED90E3215080409040AF
:10039000E1F700C0000060E080E00E9419012FEF4B
:1003A00083ED90E3215080409040E1F700C00000D1
:1003B0006CCF1F920F920FB60F9211241092310141
:1003C0000F900FBE0F901F9018951F920F920FB6AF
:1003D0000F921124109230010F900FBE0F901F90BA
:1003E00018951F920F920FB60F92112410922F01A1
:1003F0000F900FBE0F901F9018951F920F920FB67F
:100400000F92112410922E010F900FBE0F901F908B
:1004100018951F920F920FB60F92112410922D0172
:100420000F900FBE0F901F9018951F920F920FB64E
:100430000F92112410922C010F900FBE0F901F905D
:1004400018951F920F920FB60F92112410922B0144
:100450000F900FBE0F901F9018951F920F920FB61E
:100460000F92112410922A010F900FBE0F901F902F
:1004700018951F920F920FB60F9211241092290116
:100480000F900FBE0F901F9018951F920F920FB6EE
:100490000F9211248F939F938091860090918700F3
:1004A000909304018093030181E0809328011092CE
:1004B0006F009F918F910F900FBE0F901F90189516
:1004C0001F920F920FB60F921124109227010F90D6
:1004D0000FBE0F901F9018951F920F920FB60F929C
:1004E0001124109226010F900FBE0F901F901895A7
:1004F0001F920F920FB60F9211248F931092040146
:100500001092030181E08093280110926F008F9177
:100510000F900FBE0F901F9018951F920F920FB65D
:100520000F921124109224010F900FBE0F901F9074
:1005300018951F920F920FB60F921124109223015B
:100540000F900FBE0F901F9018951F920F920FB62D
:100550000F9211242F938F939F93AF93BF9380910A
:10056000070190910801A0910901B0910A018093BF
:10057000070190930801A0930901B0930A018091AB
:1005800005019091060190930601809305018091E9
:10059000050190910601883E9340E8F080910B019F
:1005A00090910C01A0910D01B0910E010196A11D39
:1005B000B11D80930B0190930C01A0930D01B0939A
:1005C0000E018091050190910601885E9340909301
:1005D000060180930501BF91AF919F918F912F915B
:1005E0000F900FBE0F901F9018951F920F920FB68D
:1005F0000F921124109221010F900FBE0F901F90A7
:1006000018951F920F920FB60F921124109220018D
:100610000F900FBE0F901F9018951F920F920FB65C
:100620000F92112410921F010F900FBE0F901F9078
:1006300018951F920F920FB60F92112410921E015F
:100640000F900FBE0F901F9018951F920F920FB62C
:100650000F9211248F939F9380917800909179004D
:10066000909318018093170181E080931D019F9161
:100670008F910F900FBE0F901F9018951F920F92A1
:100680000FB60F92112410921C010F900FBE0F9005
:100690001F9018951F920F920FB60F92112410926F
:1006A0001B010F900FBE0F901F9018951F920F9275
:1006B0000FB60F92112410921A010F900FBE0F90D7
:1006C0001F9018951F920F920FB60F92112410923F
:1006D00019010F900FBE0F901F901895F894FFCF3F
:00000001FF
