:100000000C9434000C9451000C9451000C94510049
:100010000C9451000C9451000C9451000C9451001C
:100020000C9451000C9451000C9451000C9451000C
:100030000C9451000C9451000C9451000C945100FC
:100040000C9451000C9451000C9451000C945100EC
:100050000C9451000C949E000C9451000C9451008F
:100060000C9451000C94510011241FBECFEFD8E026
:10007000DEBFCDBF11E0A0E0B1E0E8E8F2E002C0F1
:1000800005900D92A230B107D9F721E0A2E0B1E0CE
:1000900001C01D92A530B207E1F70E9453000C94F5
:1000A00042010C94000083E084B984E085B981E0CA
:1000B00087B918B88FEF8AB91BB80E94800087E112
:1000C0000E94AD000E942D0178941A9905C061E04C
:1000D0008BE00E9436010DC085E00E9486000E94E0
:1000E00097009695879596958795682F8BE00E9447
:1000F000360180910201882341F30E949700E5CFE9
:10010000109202018FE880937A0008959091020185
:10011000992321F081E00E94EA0008958064809391
:100120007C00EAE7F0E0808180648083089580911C
:100130007800909179001092020108951F920F9219
:100140000FB60F9211248F9381E0809302018F915B
:100150000F900FBE0F901F901895809300019EEF97
:10016000980F9C3078F421E02093040190930001D3
:100170004AB121E030E002C0220F331F9A95E2F726
:10018000242B2AB992EF980F963078F422E020932E
:1001900004019093000144B121E030E002C0220F3D
:1001A000331F9A95E2F7242B24B98751863088F4BF
:1001B00093E0909304018093000147B121E030E087
:1001C000B90102C0660F771F8A95E2F7CB01842B35
:1001D00087B908958093030180910401813071F003
:1001E00028F08230C1F0833019F12FC080910001D6
:1001F0000E94AD0080E00E94EA0008952BB181E0EA
:1002000090E00090000102C0880F991F0A94E2F765
:10021000822B8BB9089525B181E090E00090000118
:1002200002C0880F991F0A94E2F7822B85B90895BE
:1002300028B181E090E00090000102C0880F991F72
:100240000A94E2F7822B88B90895809100010E94F8
:10025000AD0080E00E94EA00089584B5836A84BD01
:1002600085B5846085BD17BC18BC08958B3021F01E
:100270008C3021F467BD089568BD089583E00E9425
:08028000EA000895F894FFCF95
:02028800120062
:00000001FF
