S00D0000526F626F742E7372656311
S11300000C9434000C9456020C947B020C94A002C1
S11300100C94AC020C94B8020C94C4020C94D0025C
S11300200C94DC020C94E8020C94F4020C9400038B
S11300300C945D030C9469030C9475030C94810374
S11300400C948D030C9499030C94A5030C94B103A4
S11300500C94BD030C94C9030C94E2030C94EE03BA
S11300600C94FA030C94060411241FBECFEFD8E0BD
S1130070DEBFCDBF11E0A0E0B1E0E8E2F8E002C0ED
S113008005900D92A230B107D9F721E0A2E0B1E0CA
S113009001C01D92A633B207E1F70E94ED010C9452
S11300A012049EEF980F9C30A8F45AB1262F30E02A
S11300B0092E02C0220F331F0A94E2F7252B2AB916
S11300C05BB1242F30E002C0220F331F9A95E2F770
S11300D0252B2BB992EF980F9630A8F454B1262F04
S11300E030E0092E02C0220F331F0A94E2F7252BB9
S11300F024B95BB1242F30E002C0220F331F9A953C
S1130100E2F7252B2BB98751863098F497B170E02C
S1130110082E02C0660F771F0A94E2F7692B67B9AD
S11301209BB150E002C0440F551F8A95E2F7492B5A
S11301304BB90895109224018FE880937A000895B2
S11301408093000140E061E00E9451000895809393
S1130150090141E061E0809100010E94510008958D
S11301608830A0F490912401992321F081E00E9429
S1130170A7000895982F906490937C00EAE7F0E03C
S113018090819064908380930201089585E00E9499
S1130190A7000895882319F0813089F172C084B5CD
S11301A0836084BD60347105C1F038F46130710539
S11301B061F06830710569F01CC0611581E0780751
S11301C081F06115744089F014C085B5816085BDE6
S11301D013C085B5826085BD0FC085B5836085BDBC
S11301E00BC085B5846085BD07C085B5856085BDB8
S11301F003C085B5856085BD17BC18BC0895E0E8CB
S1130200F0E080818360808360347105E1F038F42C
S11302106130710561F06830710579F025C06115B0
S113022081E07807B1F061157440C9F01DC0E1E8C0
S1130230F0E08081816080831CC0E1E8F0E080818F
S11302408260808316C0E1E8F0E08081836080836F
S113025010C0E1E8F0E08081846080830AC0E1E8B6
S1130260F0E0808185608083E1E8F0E08081856052
S11302708083109289001092880010928B00109253
S11302808A0085E00E94A7000895CF93DF938C3005
S1130290D9F018F48B3039F067C08F3031F18031E8
S11302A009F443C061C0611106C084B58F7D84BD6B
S11302B018BC5D987EC088B5681709F47AC068BD1B
S11302C084B5806284BD75C0611106C084B58F7722
S11302D084BD17BC5E986DC087B5681709F469C002
S11302E067BD84B5806884BD64C061110BC0E0E85B
S11302F0F0E080818F7780831092890010928800CB
S1130300299857C070E080918800909189006817FF
S1130310790709F44EC07093890060938800E0E87F
S1130320F0E080818068808344C061110BC0E1E803
S1130330F0E080818F7D808310928B0010928A0080
S11303402A9837C070E080918A0090918B006817DA
S1130350790779F170938B0060938A00E0E8F0E00C
S113036080818062808325C084B58F7D84BD40E018
S113037061E08BE00E94510084B58F7784BD40E03A
S113038061E08CE00E945100C0E8D0E088818F7762
S1130390888340E061E08FE00E94510088818F7D76
S11303A0888340E061E080E10E94510083E00E9484
S11303B0A700DF91CF9108958AE18093810083E1C2
S11303C090E0909387008093860082E080936F0092
S11303D01092850010928400089514B817B88FEF16
S11303E08AB915B818B81BB80E949A008091000108
S11303F00E94A00060E074E080E00E94CA000E94B5
S1130400DC017894C0E180912401882341F180913A
S11304100201813069F018F0823099F01BC080919C
S11304201E0190911F01909308018093070115C04C
S113043080911E0190911F01909306018093050104
S11304400CC080911E0190911F0190930401809330
S1130450030103C084E00E94A7001092240180914C
S11304602401811102C00E94B00060911E017091AC
S11304701F0176956795769567958BE00E944501F7
S11304808091100190911101893E934008F4BBCFF3
S113049085B18C2785B98091100190911101885EF6
S11304A093409093110180931001ADCF1F920F924E
S11304B00FB60F9211248F939F93AF93BF938091A4
S11304C01A0190911B01A0911C01B0911D0101968C
S11304D0A11DB11D80931A0190931B01A0931C01CF
S11304E0B0931D01BF91AF919F918F910F900FBE5B
S11304F00F901F9018951F920F920FB60F92112410
S11305008F939F93AF93BF9380911601909117019E
S1130510A0911801B09119010196A11DB11D8093FC
S1130520160190931701A0931801B0931901BF917C
S1130530AF919F918F910F900FBE0F901F901895C0
S11305401F920F920FB60F921124109235010F9043
S11305500FBE0F901F9018951F920F920FB60F9217
S11305601124109234010F900FBE0F901F90189514
S11305701F920F920FB60F921124109233010F9015
S11305800FBE0F901F9018951F920F920FB60F92E7
S11305901124109232010F900FBE0F901F901895E6
S11305A01F920F920FB60F921124109231010F90E7
S11305B00FBE0F901F9018951F920F920FB60F92B7
S11305C01124109230010F900FBE0F901F901895B8
S11305D01F920F920FB60F92112410922F010F90B9
S11305E00FBE0F901F9018951F920F920FB60F9287
S11305F0112410922E010F900FBE0F901F9018958A
S11306001F920F920FB60F9211242F938F939F93E3
S1130610AF93BF9380910C0190910D01A0910E01B5
S1130620B0910F010A96A11DB11D80930C01909306
S11306300D01A0930E01B0930F0180910A019091D6
S11306400B010A9690930B0180930A0180910A0191
S113065090910B01883E934030F18091120190916A
S11306601301A0911401B09115010196A11DB11DB2
S11306708093120190931301A0931401B093150178
S113068080910A0190910B01885E934090930B0135
S113069080930A0180911001909111010196909329
S11306A0110180931001BF91AF919F918F912F9170
S11306B00F900FBE0F901F9018951F920F920FB6B8
S11306C00F92112410922D010F900FBE0F901F90C6
S11306D018951F920F920FB60F92112410922C01AD
S11306E00F900FBE0F901F9018951F920F920FB688
S11306F00F92112410922B010F900FBE0F901F9098
S113070018951F920F920FB60F92112410922A017E
S11307100F900FBE0F901F9018951F920F920FB657
S11307200F921124109229010F900FBE0F901F9069
S113073018951F920F920FB60F9211241092280150
S11307400F900FBE0F901F9018951F920F920FB627
S11307500F921124109227010F900FBE0F901F903B
S113076018951F920F920FB60F9211241092260122
S11307700F900FBE0F901F9018951F920F920FB6F7
S11307800F921124109225010F900FBE0F901F900D
S113079018951F920F920FB60F9211248F939F9367
S11307A0809178009091790090931F0180931E01AD
S11307B081E0809324019F918F910F900FBE0F9041
S11307C01F9018951F920F920FB60F92112410923A
S11307D023010F900FBE0F901F9018951F920F9238
S11307E00FB60F921124109222010F900FBE0F909A
S11307F01F9018951F920F920FB60F92112410920A
S113080021010F900FBE0F901F9018951F920F9209
S11308100FB60F921124109220010F900FBE0F906B
S10B08201F901895F894FFCF16
S10508281200B8
S9030000FC
