S00D0000526F626F742E7372656311
S11300000C9434000C9451000C9451000C94510045
S11300100C9451000C9451000C9451000C94510018
S11300200C9451000C9451000C9451000C94510008
S11300300C9451000C9451000C9451000C945100F8
S11300400C9451000C9451000C9451000C945100E8
S11300500C9451000C949C000C9451000C9451008D
S11300600C9451000C94510011241FBECFEFD8E022
S1130070DEBFCDBF11E0A0E0B1E0E0EAF2E002C0F3
S113008005900D92A230B107D9F721E0A2E0B1E0CA
S113009001C01D92A530B207E1F70E9453000C94F1
S11300A04E010C94000083E084B984E085B981E0BA
S11300B087B918B88FEF8AB91BB80E947E0087E110
S11300C00E94AB0080E00E94E80078941A9905C071
S11300D085E00E9484000E942B0180910201882304
S11300E0A9F30E949500D82FC92F80E00E94E80050
S11300F085B1DBB985B1CC6FC5B9E8CF10920201E7
S11301008FE880937A00089590910201992321F059
S113011081E00E94E8000895806480937C00EAE70F
S1130120F0E08081806480830895809178009091CC
S113013079001092020108951F920F920FB60F9248
S113014011248F9381E0809302018F910F900FBE51
S11301500F901F901895809300019EEF980F9C308C
S113016078F421E020930401909300014AB121E046
S113017030E002C0220F331F9A95E2F7242B2AB9EC
S113018092EF980F963078F422E020930401909334
S1130190000144B121E030E002C0220F331F9A95E0
S11301A0E2F7242B24B98751863088F493E09093A6
S11301B004018093000147B121E030E0B90102C09D
S11301C0660F771F8A95E2F7CB01842B87B90895D0
S11301D08093030180910401813071F028F0823012
S11301E0C1F0833019F12FC0809100010E94AB004F
S11301F080E00E94E80008952BB181E090E0009037
S1130200000102C0880F991F0A94E2F7822B8BB970
S1130210089525B181E090E00090000102C0880FAC
S1130220991F0A94E2F7822B85B9089528B181E0D9
S113023090E00090000102C0880F991F0A94E2F731
S1130240822B88B90895809100010E94AB0080E060
S11302500E94E800089580910401813071F028F033
S1130260823071F0833079F011C0809100010E94D6
S1130270AB0080E00E94E80008958BB11BB808959C
S113028085B115B8089588B118B808958091000112
S11302900E94AB0080E00E94E8000895F894FFCF2C
S10502A0120046
S9030000FC
