:100000000C9434000C94B0020C94D7020C94FF02B0
:100010000C940B030C9417030C9423030C942F03E0
:100020000C948C030C9498030C94A4030C94DB03A1
:100030000C94E7030C94F3030C94FF030C940B044F
:100040000C9417040C9423040C942F040C943B047C
:100050000C9447040C9453040C946C040C94780492
:100060000C9484040C94900411241FBECFEFD8E0AC
:10007000DEBFCDBF11E0A0E0B1E0EEE9F9E002C0E3
:1000800005900D92A230B107D9F721E0A2E0B1E0CE
:1000900001C01D92A334B207E1F70E9402020C9442
:1000A000CD049EEF980F9C30A8F45AB1262F30E073
:1000B000092E02C0220F331F0A94E2F7252B2AB91A
:1000C0005BB1242F30E002C0220F331F9A95E2F774
:1000D000252B2BB992EF980F9630A8F454B1262F08
:1000E00030E0092E02C0220F331F0A94E2F7252BBD
:1000F00024B95BB1242F30E002C0220F331F9A9540
:10010000E2F7252B2BB98751863098F497B170E030
:10011000082E02C0660F771F0A94E2F7692B67B9B1
:100120009BB150E002C0440F551F8A95E2F7492B5E
:100130004BB90895109231018FE880937A000895A9
:100140008093000140E061E00E9451000895809397
:10015000090141E061E0809100010E945100089591
:100160008830A0F490913101992321F081E00E9420
:10017000A7000895982F906490937C00EAE7F0E040
:1001800090819064908380930201089585E00E949D
:10019000A700089570930D0160930C01882319F056
:1001A000813089F172C084B5836084BD603471058B
:1001B000C1F038F46130710561F06830710569F0A3
:1001C0001CC0611581E0780781F06115744089F0E9
:1001D00014C085B5816085BD13C085B5826085BDBD
:1001E0000FC085B5836085BD0BC085B5846085BDB6
:1001F00007C085B5856085BD03C085B5856085BDB3
:1002000017BC18BC0895E0E8F0E08081836080832B
:1002100060347105E1F038F46130710561F06830E7
:10022000710579F025C0611581E07807B1F061159D
:100230007440C9F01DC0E1E8F0E0808181608083F6
:100240001CC0E1E8F0E080818260808316C0E1E8B4
:10025000F0E080818360808310C0E1E8F0E080817D
:10026000846080830AC0E1E8F0E08081856080835B
:10027000E1E8F0E08081856080831092890010922F
:10028000880010928B0010928A0085E00E94A700DF
:100290000895CF93DF938C30D9F018F48B3039F078
:1002A00067C08F3031F1803109F443C061C0611102
:1002B00006C084B58F7D84BD18BC5D987EC088B5AE
:1002C000681709F47AC068BD84B5806284BD75C0C2
:1002D000611106C084B58F7784BD17BC5E986DC070
:1002E00087B5681709F469C067BD84B5806884BDA7
:1002F00064C061110BC0E0E8F0E080818F778083FB
:100300001092890010928800299857C070E080915F
:100310008800909189006817790709F44EC070939E
:10032000890060938800E0E8F0E080818068808345
:1003300044C061110BC0E1E8F0E080818F7D8083D3
:1003400010928B0010928A002A9837C070E080913A
:100350008A0090918B006817790779F170938B0070
:1003600060938A00E0E8F0E080818062808325C0AD
:1003700084B58F7D84BD40E061E08BE00E94510038
:1003800084B58F7784BD40E061E08CE00E9451002D
:10039000C0E8D0E088818F77888340E061E08FE01B
:1003A0000E94510088818F7D888340E061E080E178
:1003B0000E94510083E00E94A700DF91CF91089531
:1003C000CF9390930B0180930A01C2E0C093B000D9
:1003D000C093B1009C01220F331FA0E5B3EC0E9433
:1003E000BE049B01AC0160E074E284EF90E00E94E7
:1003F0009C0421502093B300C09370001092B2006F
:10040000CF91089514B817B88FEF8AB915B818B8F6
:100410001BB80E949A00809100010E94A00060E039
:1004200074E080E00E94CA000E94E0017894C0E17C
:1004300080913C01882309F440C0809122018823E7
:1004400019F08130F1F039C0209110013091110183
:1004500080911401909115018217930748F48091BF
:10046000140190911501809110019091110125C006
:1004700080911401909115018091100190911101CA
:100480001CC020910E0130910F01809112019091BA
:1004900013018217930748F4809112019091130180
:1004A00080910E0190910F0108C0809112019091EE
:1004B000130180910E0190910F01809131018823E9
:1004C00041F180910201813069F018F0823099F099
:1004D0001BC080912B0190912C0190930801809377
:1004E000070115C080912B0190912C01909306017A
:1004F000809305010CC080912B0190912C01909369
:1005000004018093030103C084E00E94A7001092BD
:10051000310180913101811102C00E94B0006091CF
:100520002B0170912C0176956795769567958BE0F8
:100530000E94490180911C0190911D01893E9340C8
:1005400008F476CF85B18C2785B980911C019091F4
:100550001D01885E934090931D0180931C0168CF1C
:100560001F920F920FB60F9211248F939F93AF9308
:10057000BF938091270190912801A0912901B0910A
:100580002A010196A11DB11D809327019093280196
:10059000A0932901B0932A0110922201BF91AF913B
:1005A0009F918F910F900FBE0F901F9018951F92E3
:1005B0000F920FB60F9211248F939F93AF93BF9317
:1005C0008091230190912401A0912501B0912601F1
:1005D0000196A11DB11D8093230190932401A09346
:1005E0002501B093260181E080932201BF91AF9154
:1005F0009F918F910F900FBE0F901F9018951F9293
:100600000F920FB60F921124109242010F900FBE5D
:100610000F901F9018951F920F920FB60F921124F2
:10062000109241010F900FBE0F901F9018951F92CE
:100630000F920FB60F921124109240010F900FBE2F
:100640000F901F9018951F920F920FB60F921124C2
:1006500010923F010F900FBE0F901F9018951F92A0
:100660000F920FB60F9211242F938F939F93AF93F6
:10067000BF938091180190911901A0911A01B09136
:100680001B010A96A11DB11D8093180190931901B9
:10069000A0931A01B0931B0180911601909117014C
:1006A0000A969093170180931601809116019091FC
:1006B0001701883E934030F180911E0190911F01F7
:1006C000A0912001B09121010196A11DB11D80933F
:1006D0001E0190931F01A0932001B09321018091EE
:1006E000160190911701885E9340909317018093B3
:1006F000160180911C0190911D01019690931D019E
:1007000080931C01BF91AF919F918F912F910F907A
:100710000FBE0F901F9018951F920F920FB60F9259
:10072000112410923E010F900FBE0F901F9018954C
:100730001F920F920FB60F92112410923D010F904D
:100740000FBE0F901F9018951F920F920FB60F9229
:1007500011248F939F9381E080933C01809122012B
:10076000882319F0813089F01FC080911401909185
:10077000150190931101809310018091870090E002
:1007800090931501809314010FC0809112019091F4
:10079000130190930F0180930E018091870090E0E8
:1007A00090931301809312019F918F910F900FBE30
:1007B0000F901F9018951F920F920FB60F92112451
:1007C00010923B010F900FBE0F901F9018951F9233
:1007D0000F920FB60F92112410923A010F900FBE94
:1007E0000F901F9018951F920F920FB60F92112421
:1007F000109239010F900FBE0F901F9018951F9205
:100800000F920FB60F921124109238010F900FBE65
:100810000F901F9018951F920F920FB60F921124F0
:10082000109237010F900FBE0F901F9018951F92D6
:100830000F920FB60F921124109236010F900FBE37
:100840000F901F9018951F920F920FB60F921124C0
:10085000109235010F900FBE0F901F9018951F92A8
:100860000F920FB60F921124109234010F900FBE09
:100870000F901F9018951F920F920FB60F92112490
:10088000109233010F900FBE0F901F9018951F927A
:100890000F920FB60F921124109232010F900FBEDB
:1008A0000F901F9018951F920F920FB60F92112460
:1008B0008F939F93809178009091790090932C0171
:1008C00080932B0181E0809331019F918F910F9054
:1008D0000FBE0F901F9018951F920F920FB60F9298
:1008E0001124109230010F900FBE0F901F90189599
:1008F0001F920F920FB60F92112410922F010F909A
:100900000FBE0F901F9018951F920F920FB60F9267
:10091000112410922E010F900FBE0F901F9018956A
:100920001F920F920FB60F92112410922D010F906B
:100930000FBE0F901F901895A1E21A2EAA1BBB1B89
:10094000FD010DC0AA1FBB1FEE1FFF1FA217B3079B
:10095000E407F50720F0A21BB30BE40BF50B661FB1
:10096000771F881F991F1A9469F760957095809575
:1009700090959B01AC01BD01CF010895A29FB001EC
:10098000B39FC001A39F700D811D1124911DB29FC3
:0E099000700D811D1124911D0895F894FFCF64
:02099E00120045
:00000001FF
