S00D0000526F626F742E7372656311
S11300000C9453000C94E3030C940A040C943204EF
S11300100C943E040C944A040C9456040C9462040C
S11300200C94B6040C94C2040C94CE040C940705EE
S11300300C9413050C941F050C942E050C943A058E
S11300400C9446050C9452050C945E050C946A05B8
S11300500C9476050C9482050C949B050C94A705CE
S11300600C94B3050C940B06D505F705FA05F705B2
S1130070F705F705F705F705F705F705DF05F705B4
S1130080E905F705F705F705F705F705F705F7059A
S1130090ED05F705F305F705F705F705F705F7058A
S11300A0F705F705FA0511241FBECFEFD8E0DEBF30
S11300B0CDBF11E0A0E0B1E0EEEDFCE002C00590A0
S11300C00D92A230B107D9F721E0A2E0B1E001C05E
S11300D01D92AF34B207E1F70E94E0020C946D0662
S11300E09EEF980F9C30A8F45AB1262F30E0092EC9
S11300F002C0220F331F0A94E2F7252B2AB95BB101
S1130100242F30E002C0220F331F9A95E2F7252BEB
S11301102BB992EF980F9630A8F454B1262F30E003
S1130120092E02C0220F331F0A94E2F7252B24B9AB
S113013055B1242F30E002C0220F331F9A95E2F705
S1130140252B25B98751863098F497B170E0082E95
S113015002C0660F771F0A94E2F7692B67B998B15A
S113016050E002C0440F551F8A95E2F7492B48B965
S1130170089510923D018FE880937A00089580934A
S1130180000140E061E00E9470000895809309013D
S113019041E061E0809100010E9470000895CF93D6
S11301A0C82F8830D0F440E060E087E18C0F0E94D3
S11301B0700080913D01882321F081E00E94C600F7
S11301C00FC08C2F806480937C00EAE7F0E080818C
S11301D080648083C093020103C085E00E94C6004E
S11301E0CF9108957093110160931001882319F041
S11301F0813089F172C084B5836084BD6034710537
S1130200C1F038F46130710561F06830710569F04E
S11302101CC0611581E0780781F06115744089F094
S113022014C085B5816085BD13C085B5826085BD68
S11302300FC085B5836085BD0BC085B5846085BD61
S113024007C085B5856085BD03C085B5856085BD5E
S113025017BC18BC0895E0E8F0E0808183608083D7
S113026060347105E1F038F46130710561F0683093
S1130270710579F025C0611581E07807B1F0611549
S11302807440C9F01DC0E1E8F0E0808181608083A2
S11302901CC0E1E8F0E080818260808316C0E1E860
S11302A0F0E080818360808310C0E1E8F0E0808129
S11302B0846080830AC0E1E8F0E080818560808307
S11302C0E1E8F0E0808185608083109289001092DB
S11302D0880010928B0010928A0085E00E94C6006C
S11302E00895CF93DF938C30D9F018F48B3039F024
S11302F067C08F3031F1803109F443C061C06111AE
S113030006C084B58F7D84BD18BC5D987EC088B559
S1130310681709F47AC068BD84B5806284BD75C06D
S1130320611106C084B58F7784BD17BC5E986DC01B
S113033087B5681709F469C067BD84B5806884BD52
S113034064C061110BC0E0E8F0E080818F778083A6
S11303501092890010928800299857C070E080910B
S11303608800909189006817790709F44EC070934A
S1130370890060938800E0E8F0E0808180688083F1
S113038044C061110BC0E1E8F0E080818F7D80837F
S113039010928B0010928A002A9837C070E08091E6
S11303A08A0090918B006817790779F170938B001C
S11303B060938A00E0E8F0E080818062808325C059
S11303C084B58F7D84BD40E061E08BE00E947000C5
S11303D084B58F7784BD40E061E08CE00E947000BA
S11303E0C0E8D0E088818F77888340E061E08FE0C7
S11303F00E94700088818F7D888340E061E080E105
S11304000E94700083E00E94C600DF91CF9108959E
S1130410CF9390930F0180930E0122E02093B000BC
S11304208034910511F148F488309105B1F080329F
S11304309105B9F0019749F50CC0811521E09207A7
S1130440E1F0811524E09207E1F080389105E9F4A8
S113045010C081E08093B1001BC082E08093B100A2
S113046017C083E08093B10013C084E08093B1008F
S11304700FC085E08093B1000BC086E08093B1008B
S113048007C087E08093B10003C087E08093B10088
S1130490C2E0C093B10020910E0130910F01220FF0
S11304A0331FA0E5B3EC0E945E069B01AC0160E043
S11304B074E284EF90E00E94170622502093B30068
S11304C0C09370001092B200CF9108951F93CF9300
S11304D0DF93EC01162F90930D0180930C019C0186
S11304E040E050E060E074E284EF90E00E94170680
S11304F060E472E48FE090E00E94170630930B01F1
S113050020930A0180E4189FB0011124606860936D
S11305108100C034D105D9F030F4C130D10559F08F
S1130520289779F026C0C11581E0D807B1F0C1152C
S1130530D440C9F01EC0E1E8F0E08081816080838E
S11305401DC0E1E8F0E080818260808317C0E1E8AB
S1130550F0E080818360808311C0E1E8F0E0808175
S1130560856080830BC0E1E8F0E080818160808356
S113057005C0E1E8F0E080818160808380E28093BF
S11305806F00DF91CF911F91089587E690E09093DB
S1130590C5008093C40088ED8093C10086E08093F9
S11305A0C200089590913E01992321F08CE00E94AD
S11305B0C600089591E090933E018093C60008958B
S11305C086E084B917B88FEF8AB981E085B918B885
S11305D01BB8809100010E94BF000E9408020E9483
S11305E0B90060E074E080E00E94F20060E080E026
S11305F094E00E94660280E895E20E94C502789425
S11306000F2EF0E4CF2EF2E4DF2EFFE0EF2EF12CDC
S1130610F02D80914801882309F48DC080912C012C
S1130620882321F0813009F443C083C02091140150
S11306303091150180911801909119018217930747
S113064078F480911801909119012091140130914E
S11306501501821B930B90932B0180932A010EC0EA
S11306608091180190911901209114013091150184
S1130670821B930B90932B0180932A0140912A01B2
S113068050912B0180910A0190910B01489F900198
S1130690499F300D589F300D112440E050E0C701B0
S11306A0B6010E943906309327012093260141C0E8
S11306B0209112013091130180911601909117013C
S11306C08217930778F48091160190911701209175
S11306D0120130911301821B930B90932901809393
S11306E028010EC0809116019091170120911201EA
S11306F030911301821B930B90932901809328015D
S1130700409128015091290180910A0190910B0197
S1130710489F9001499F300D589F300D112440E0AF
S113072050E0C701B6010E94390630932501209399
S113073024011092480180913D01882341F1809168
S11307400201813069F018F0823099F01BC0809169
S1130750370190913801909308018093070115C0E7
S1130760809137019091380190930601809305019F
S11307700CC08091370190913801909304018093CB
S1130780030103C084E00E94C60010923D018091E1
S11307903D01811102C00E94CF0060913701709128
S11307A0380176956795769567958CE00E9471017E
S11307B08091370190913801969587959695879504
S11307C00E94D20226CF1F920F920FB60F921124CD
S11307D08F939F93AF93BF93809131019091320196
S11307E0A0913301B09134010196A11DB11D8093F4
S11307F0310190933201A0933301B09334011092EC
S11308002C01BF91AF919F918F910F900FBE0F90CC
S11308101F9018951F920F920FB60F9211248F9369
S11308209F93AF93BF9380912D0190912E01A0913E
S11308302F01B09130010196A11DB11D80932D01AE
S113084090932E01A0932F01B093300181E0809307
S11308502C01BF91AF919F918F910F900FBE0F907C
S11308601F9018951F920F920FB60F921124109299
S11308704E010F900FBE0F901F9018951F920F926C
S11308800FB60F92112410924D010F900FBE0F90CE
S11308901F9018951F920F920FB60F921124109269
S11308A04C010F900FBE0F901F9018951F920F923E
S11308B00FB60F92112410924B010F900FBE0F90A0
S11308C01F9018951F920F920FB60F9211242F9319
S11308D08F939F93AF93BF9380911C0190911D01BF
S11308E0A0911E01B0911F010A96A11DB11D809314
S11308F01C0190931D01A0931E01B0931F018091D0
S11309001A0190911B010A9690931B0180931A017E
S113091080911A0190911B01883E9340E8F08091E8
S1130920200190912101A0912201B091230101960F
S1130930A11DB11D8093200190932101A093220158
S1130940B093230180911A0190911B01885E93401A
S113095090931B0180931A01BF91AF919F918F9146
S11309602F910F900FBE0F901F9018951F920F920A
S11309700FB60F92112410924A010F900FBE0F90E0
S11309801F9018951F920F920FB60F921124109278
S113099049010F900FBE0F901F9018951F920F9250
S11309A00FB60F9211248F939F9381E08093480197
S11309B080912C01882319F0813091F021C080911D
S11309C0180190911901909315018093140180915D
S11309D0860090918700909319018093180110C0AC
S11309E08091160190911701909313018093120145
S11309F0809186009091870090931701809316014F
S1130A009F918F910F900FBE0F901F9018951F927A
S1130A100F920FB60F921124109247010F900FBE40
S1130A200F901F9018951F920F920FB60F921124DA
S1130A30109246010F900FBE0F901F9018951F92B1
S1130A400F920FB60F9211248F9381E0809345018A
S1130A508F910F900FBE0F901F9018951F920F92B9
S1130A600FB60F921124109244010F900FBE0F90F5
S1130A701F9018951F920F920FB60F921124109287
S1130A8043010F900FBE0F901F9018951F920F9265
S1130A900FB60F921124109242010F900FBE0F90C7
S1130AA01F9018951F920F920FB60F921124109257
S1130AB041010F900FBE0F901F9018951F920F9237
S1130AC00FB60F921124109240010F900FBE0F9099
S1130AD01F9018951F920F920FB60F921124109227
S1130AE03F010F900FBE0F901F9018951F920F9209
S1130AF00FB60F92112410923E010F900FBE0F906B
S1130B001F9018951F920F920FB60F9211248F9376
S1130B109F9380917800909179009093380180930D
S1130B20370181E080933D019F918F910F900FBE1B
S1130B300F901F9018951F920F920FB60F921124C9
S1130B4010923C010F900FBE0F901F9018951F92AA
S1130B500F920FB60F92112410923B010F900FBE0B
S1130B600F901F9018951F920F920FB60F92112499
S1130B702F933F934F935F936F937F938F939F93A1
S1130B80AF93BF93EF93FF9310923A018091B90012
S1130B90E82FEC7F8E2F90E0FC013897EF31F105C0
S1130BA030F5EC5CFF4F0C9458068091350180932E
S1130BB0BB00ECEBF0E08081806880831BC08091F7
S1130BC036018093BB00ECEBF0E080818068808389
S1130BD011C08AE00E94C6000DC0ECEBF0E08081F9
S1130BE08069808307C08AE00E94C60003C08AE04F
S1130BF00E94C600FF91EF91BF91AF919F918F9199
S1130C007F916F915F914F913F912F910F900FBE04
S1130C100F901F9018951F920F920FB60F921124E8
S1130C20109239010F900FBE0F901F901895A1E2FA
S1130C301A2EAA1BBB1BFD010DC0AA1FBB1FEE1F52
S1130C40FF1FA217B307E407F50720F0A21BB30B9D
S1130C50E40BF50B661F771F881F991F1A9469F719
S1130C6060957095809590959B01AC01BD01CF0175
S1130C700895052E97FB1EF400940E94500657FD1C
S1130C8007D00E94170607FC03D04EF40C945006BC
S1130C9050954095309521953F4F4F4F5F4F0895A4
S1130CA090958095709561957F4F8F4F9F4F0895D4
S1130CB0EE0FFF1F0590F491E02D0994A29FB0015F
S1130CC0B39FC001A39F700D811D1124911DB29F7C
S1110CD0700D811D1124911D0895F894FFCF1D
S1050CDE1200FE
S9030000FC
